:020000040000FA
:100000000C9462000C948A000C948A000C948A0070
:100010000C948A000C948A000C948A000C948A0038
:100020000C948A000C948A000C948A000C948A0028
:100030000C948A000C948A000C948A000C948A0018
:100040000C94DA020C948A000C944A030C94240356
:100050000C948A000C948A000C948A000C948A00F8
:100060000C948A000C948A000000000024002700F1
:100070002A0000000000250028002B0000000000DE
:1000800023002600290004040404040404040202DA
:100090000202020203030303030301020408102007
:1000A0004080010204081020010204081020000012
:1000B0000008000201000003040700000000000027
:1000C0000000380511241FBECFEFD8E0DEBFCDBF42
:1000D00022E0AEE6B1E001C01D92A431B207E1F723
:1000E00011E0A0E0B1E0E8E0FBE002C005900D9275
:1000F000AE36B107D9F710E0C2E6D0E004C02197D0
:10010000FE010E946505C136D107C9F70E947C0334
:100110000C9482050C940000833081F028F4813027
:1001200099F08230A9F008958730A9F08830C9F09D
:100130008430B1F4809180008F7D03C08091800075
:100140008F7780938000089584B58F7784BD08955C
:1001500084B58F7DFBCF8091B0008F778093B00006
:1001600008958091B0008F7DF9CFCF93DF93282F32
:1001700030E0F901E255FF4F8491F901E656FF4F57
:10018000D491F901EA57FF4FC491CC23A1F081111A
:100190000E948C00EC2FF0E0EE0FFF1FE458FF4FA1
:1001A000A591B491EC91ED2381E090E009F480E019
:1001B000DF91CF91089580E090E0FACF1F93CF9325
:1001C000DF93282F30E0F901E255FF4F8491F901C8
:1001D000E656FF4FD491F901EA57FF4FC491CC2363
:1001E000A9F0162F81110E948C00EC2FF0E0EE0F89
:1001F000FF1FEE58FF4FA591B4918FB7F894EC9183
:10020000111108C0D095DE23DC938FBFDF91CF9111
:100210001F910895DE2BF8CFCF93DF9390E0FC0180
:10022000E656FF4F24918A579F4FFC018491882303
:10023000D1F090E0880F991FFC01E859FF4FA5917C
:10024000B491FC01EE58FF4FC591D491623071F426
:100250009FB7F8943C91822F809583238C93E881FB
:100260002E2B28839FBFDF91CF9108958FB7F894ED
:10027000EC912E2B2C938FBFF6CF3FB7F894809143
:10028000730190917401A0917501B091760126B52A
:10029000A89B05C02F3F19F00196A11DB11D3FBFBE
:1002A000BA2FA92F982F8827BC01CD01620F711D8D
:1002B000811D911D42E0660F771F881F991F4A9587
:1002C000D1F708958F929F92AF92BF92CF92DF9213
:1002D000EF92FF920E943D014B015C018CE2C82E1F
:1002E000DD24D394E12CF12C0E943D016819790999
:1002F0008A099B09683E734081059105A8F321E0B6
:10030000C21AD108E108F10888EE880E83E0981E31
:10031000A11CB11CC114D104E104F10429F7FF9020
:10032000EF90DF90CF90BF90AF909F908F90089507
:10033000AF92BF92CF92DF92EF92FF920F931F93F3
:10034000CF93DF936C017B018B01040F151FEB0131
:100350005E01AE18BF08C017D10759F06991D601E8
:10036000ED91FC910190F081E02DC6010995892B5A
:1003700079F7C501DF91CF911F910F91FF90EF9019
:10038000DF90CF90BF90AF900895FC01538D448DC6
:10039000252F30E0842F90E0821B930B541710F030
:1003A000CF96089501970895FC01918D828D98173D
:1003B00061F0A28DAE0FBF2FB11D5D968C91928D15
:1003C0009F5F9F73928F90E008958FEF9FEF089546
:1003D000FC01918D828D981731F0828DE80FF11D0F
:1003E000858D90E008958FEF9FEF0895FC01918D2A
:1003F000228D892F90E0805C9F4F821B91098F7323
:100400009927089587E791E00E94F60121E0892B62
:1004100009F420E0822F089580E090E0892B29F0F4
:100420000E94020281110C9400000895FC01A48D29
:10043000A80FB92FB11DA35ABF4F2C91848D90E006
:1004400001968F739927848FA689B7892C93A089E9
:10045000B1898C91837080648C93938D848D981373
:1004600006C00288F389E02D80818F7D8083089506
:10047000EF92FF920F931F93CF93DF93EC0181E0F4
:10048000888F9B8D8C8D98131AC0E889F98980819B
:1004900085FF15C09FB7F894EE89FF896083E889CE
:1004A000F98980818370806480839FBF81E090E0C0
:1004B000DF91CF911F910F91FF90EF900895F62E4D
:1004C0000B8D10E00F5F1F4F0F731127E02E8C8DE7
:1004D0008E110CC00FB607FCFACFE889F98980812C
:1004E00085FFF5CFCE010E941602F1CFEB8DEC0F08
:1004F000FD2FF11DE35AFF4FF0829FB7F8940B8F49
:10050000EA89FB8980818062CFCFCF93DF93EC01B2
:10051000888D8823B9F0AA89BB89E889F9898C91EB
:1005200085FD03C0808186FD0DC00FB607FCF7CFA7
:100530008C9185FFF2CF808185FFEDCFCE010E94A7
:100540001602E9CFDF91CF910895FC0101900020C0
:10055000E9F73197AF01481B590BBC0187E791E0E0
:100560000C949801CF93DF930E94A502EC0182E3E3
:1005700091E00E94A5028C0F9D1FDF91CF910895FD
:10058000CF93DF93CDB7DEB7A1970FB6F894DEBF58
:100590000FBECDBF19A2805D88A3CE0180960E94B8
:1005A000A502A1960FB6F894DEBF0FBECDBFDF91B6
:1005B000CF9108951F920F920FB60F9211242F938F
:1005C0003F938F939F93AF93BF9380916F019091CF
:1005D0007001A0917101B091720130916E0123E020
:1005E000230F2D3758F50196A11DB11D20936E01E3
:1005F00080936F0190937001A0937101B093720189
:100600008091730190917401A0917501B091760170
:100610000196A11DB11D8093730190937401A09365
:100620007501B0937601BF91AF919F918F913F91EA
:100630002F910F900FBE0F901F90189526E8230F53
:100640000296A11DB11DD2CF1F920F920FB60F922D
:1006500011242F933F934F935F936F937F938F93C7
:100660009F93AF93BF93EF93FF9387E791E00E942F
:100670001602FF91EF91BF91AF919F918F917F9162
:100680006F915F914F913F912F910F900FBE0F90FF
:100690001F9018951F920F920FB60F9211242F934F
:1006A0008F939F93EF93FF93E0918701F0918801DF
:1006B0008081E0918D01F0918E0182FD1BC09081BF
:1006C000809190018F5F8F7320919101821741F08B
:1006D000E0919001F0E0E958FE4F958F80939001F2
:1006E000FF91EF919F918F912F910F900FBE0F90DF
:1006F0001F9018958081F4CFCF93DF93CDB7DEB7ED
:10070000A0970FB6F894DEBF0FBECDBF789484B526
:10071000826084BD84B5816084BD85B5826085BDFD
:1007200085B5816085BD80916E00816080936E008B
:10073000109281008091810082608093810080917D
:10074000810081608093810080918000816080932E
:1007500080008091B10084608093B1008091B000EE
:1007600081608093B00080917A00846080937A00E9
:1007700080917A00826080937A0080917A00816013
:1007800080937A0080917A00806880937A0010923A
:10079000C100E0918701F091880182E08083E091BF
:1007A0008301F09184011082E0918501F09186012E
:1007B0008FEC808310928F01E0918B01F0918C017E
:1007C00086E08083E0918901F0918A0180818061D7
:1007D0008083E0918901F0918A0180818860808323
:1007E000E0918901F0918A01808180688083E091A5
:1007F0008901F0918A0180818F7D808361E08AE0A8
:100800000E940C01E2E2CE2EE1E0DE2EF2E1EF2EBC
:10081000F1E0FF2EAAE1AA2EA1E0BA2E0AE211E031
:10082000F80180810E5F1F4F62E00E940C01F5010C
:100830008081F2E0AF0EB11C62E00E940C01F60173
:100840008081F2E0CF0ED11C61E00E940C01F70123
:100850008081F2E0EF0EF11C61E00E940C0121E0CA
:1008600002331207E9F685E391E00E94B20200E04C
:1008700010E06AE1C62E61E0D62E7AE2A72E71E082
:10088000B72EF12CE12CF5018081F2E0AF0EB11C06
:100890000E94B5002FEFE21AF20A892BB1F4F7019A
:1008A000EE0FFF1FE05EFE4F61E080810E94DE00E0
:1008B00089E491E00E94A502C7010E94C0028EE473
:1008C00091E00E94B2020E946201F6018081F2E092
:1008D000CF0ED11C0E94B500892BB1F4F701EE0FA9
:1008E000FF1FE05FFE4F61E080810E94DE0089E42F
:1008F00091E00E94A502C7010E94C00281E591E03B
:100900000E94B2020E94620124E0E216F10409F0A2
:10091000BACF87E791E00E94F601181619060CF08D
:1009200071C0CE0101965C01F12CE12C6C012FB756
:10093000F89480916F0190917001A0917101B09134
:1009400072012FBF80937F0190938001A09381015A
:10095000B093820187E791E00E94D40197FF78C0AD
:100960002FB7F89480916F0190917001A09171015F
:10097000B09172012FBF40917F0150918001609131
:10098000810170918201841B950BA60BB70B4091DE
:100990007B0150917C0160917D0170917E018417F3
:1009A0009507A607B707B0F2F601EE0DFF1D1082FE
:1009B000E114F10451F081E0E81AF108F601EE0DBE
:1009C000FF1D80818D3009F4108245E050E064E520
:1009D00071E0C6010E947405892B41F58E81082EB5
:1009E000000C990BC1978430910560F428852E3452
:1009F000A9F4880F991FFC01EE5DFE4F60E0808135
:100A00000E94DE000115110509F433CF0E94020295
:100A1000882309F42ECF0E9400002BCF253491F7B4
:100A2000880F991FFC01EE5EFE4FE8CF6AE571E08A
:100A3000C6010E946B0561E0892B41F063E671E01D
:100A4000C6010E946B05892BE9F660E08AE0D8CFE9
:100A50008A30910509F4A8CFF50181935F01FFEF7A
:100A6000EF1AFF0A2FE1E216F10409F060CF9CCFE4
:100A7000E7E7F1E01382128288EE93E0A0E0B0E0B5
:100A800084839583A683B78384E091E091838083F8
:100A900085EC90E09587848784EC90E09787868743
:100AA00080EC90E0918B808B81EC90E0938B828B3B
:100AB00082EC90E0958B848B86EC90E0978B868B14
:100AC000118E128E138E148E0895EE0FFF1F059057
:100AD000F491E02D0994FB01DC018D9101908019C6
:100AE0000110D9F3990B0895FB01DC0141505040EE
:100AF00030F08D910190801919F40020B9F7881B0E
:100B0000990B0895F894FFCF000000003802980177
:100B1000C5018502F601D401E8010F0011001300A0
:100B200009000300050007000C000E001000120071
:100B300008000200040006000B000D0A0053595380
:100B400054454D5F53544152543A20524541445903
:100B5000005245513A003A4E003A4500444F4E4546
:100B60003A00414C41524D3A4F4E00414C41524D9A
:060B70003A4F464600006A
:107E0000112484B714BE81FFF0D085E080938100F7
:107E100082E08093C00088E18093C10086E0809377
:107E2000C20080E18093C4008EE0C9D0259A86E02C
:107E300020E33CEF91E0309385002093840096BBD3
:107E4000B09BFECF1D9AA8958150A9F7CC24DD24C4
:107E500088248394B5E0AB2EA1E19A2EF3E0BF2EE7
:107E6000A2D0813461F49FD0082FAFD0023811F036
:107E7000013811F484E001C083E08DD089C08234E0
:107E800011F484E103C0853419F485E0A6D080C0E4
:107E9000853579F488D0E82EFF2485D0082F10E0AE
:107EA000102F00270E291F29000F111F8ED06801E7
:107EB0006FC0863521F484E090D080E0DECF843638
:107EC00009F040C070D06FD0082F6DD080E0C81688
:107ED00080E7D80618F4F601B7BEE895C0E0D1E017
:107EE00062D089930C17E1F7F0E0CF16F0E7DF06D8
:107EF00018F0F601B7BEE89568D007B600FCFDCFD4
:107F0000A601A0E0B1E02C9130E011968C91119780
:107F100090E0982F8827822B932B1296FA010C0160
:107F200087BEE89511244E5F5F4FF1E0A038BF0790
:107F300051F7F601A7BEE89507B600FCFDCF97BE46
:107F4000E89526C08437B1F42ED02DD0F82E2BD052
:107F50003CD0F601EF2C8F010F5F1F4F84911BD097
:107F6000EA94F801C1F70894C11CD11CFA94CF0C13
:107F7000D11C0EC0853739F428D08EE10CD085E9AC
:107F80000AD08FE07ACF813511F488E018D01DD067
:107F900080E101D065CF982F8091C00085FFFCCF94
:107FA0009093C60008958091C00087FFFCCF809118
:107FB000C00084FD01C0A8958091C6000895E0E648
:107FC000F0E098E1908380830895EDDF803219F02E
:107FD00088E0F5DFFFCF84E1DECF1F93182FE3DFCA
:107FE0001150E9F7F2DF1F91089580E0E8DFEE27F6
:047FF000FF270994CA
:027FFE00040479
:00000001FF
